{
  "_format": "hh-sol-artifact-1",
  "contractName": "Epiphany",
  "sourceName": "contracts/Epiphany.sol",
  "abi": [
    {
      "inputs": [],
      "stateMutability": "nonpayable",
      "type": "constructor"
    },
    {
      "anonymous": false,
      "inputs": [
        {
          "indexed": true,
          "internalType": "address",
          "name": "account",
          "type": "address"
        },
        {
          "indexed": true,
          "internalType": "address",
          "name": "operator",
          "type": "address"
        },
        {
          "indexed": false,
          "internalType": "bool",
          "name": "approved",
          "type": "bool"
        }
      ],
      "name": "ApprovalForAll",
      "type": "event"
    },
    {
      "anonymous": false,
      "inputs": [
        {
          "indexed": false,
          "internalType": "uint8",
          "name": "version",
          "type": "uint8"
        }
      ],
      "name": "Initialized",
      "type": "event"
    },
    {
      "anonymous": false,
      "inputs": [
        {
          "indexed": true,
          "internalType": "bytes32",
          "name": "role",
          "type": "bytes32"
        },
        {
          "indexed": true,
          "internalType": "bytes32",
          "name": "previousAdminRole",
          "type": "bytes32"
        },
        {
          "indexed": true,
          "internalType": "bytes32",
          "name": "newAdminRole",
          "type": "bytes32"
        }
      ],
      "name": "RoleAdminChanged",
      "type": "event"
    },
    {
      "anonymous": false,
      "inputs": [
        {
          "indexed": true,
          "internalType": "bytes32",
          "name": "role",
          "type": "bytes32"
        },
        {
          "indexed": true,
          "internalType": "address",
          "name": "account",
          "type": "address"
        },
        {
          "indexed": true,
          "internalType": "address",
          "name": "sender",
          "type": "address"
        }
      ],
      "name": "RoleGranted",
      "type": "event"
    },
    {
      "anonymous": false,
      "inputs": [
        {
          "indexed": true,
          "internalType": "bytes32",
          "name": "role",
          "type": "bytes32"
        },
        {
          "indexed": true,
          "internalType": "address",
          "name": "account",
          "type": "address"
        },
        {
          "indexed": true,
          "internalType": "address",
          "name": "sender",
          "type": "address"
        }
      ],
      "name": "RoleRevoked",
      "type": "event"
    },
    {
      "anonymous": false,
      "inputs": [
        {
          "indexed": true,
          "internalType": "address",
          "name": "operator",
          "type": "address"
        },
        {
          "indexed": true,
          "internalType": "address",
          "name": "from",
          "type": "address"
        },
        {
          "indexed": true,
          "internalType": "address",
          "name": "to",
          "type": "address"
        },
        {
          "indexed": false,
          "internalType": "uint256[]",
          "name": "ids",
          "type": "uint256[]"
        },
        {
          "indexed": false,
          "internalType": "uint256[]",
          "name": "values",
          "type": "uint256[]"
        }
      ],
      "name": "TransferBatch",
      "type": "event"
    },
    {
      "anonymous": false,
      "inputs": [
        {
          "indexed": true,
          "internalType": "address",
          "name": "operator",
          "type": "address"
        },
        {
          "indexed": true,
          "internalType": "address",
          "name": "from",
          "type": "address"
        },
        {
          "indexed": true,
          "internalType": "address",
          "name": "to",
          "type": "address"
        },
        {
          "indexed": false,
          "internalType": "uint256",
          "name": "id",
          "type": "uint256"
        },
        {
          "indexed": false,
          "internalType": "uint256",
          "name": "value",
          "type": "uint256"
        }
      ],
      "name": "TransferSingle",
      "type": "event"
    },
    {
      "anonymous": false,
      "inputs": [
        {
          "indexed": false,
          "internalType": "string",
          "name": "value",
          "type": "string"
        },
        {
          "indexed": true,
          "internalType": "uint256",
          "name": "id",
          "type": "uint256"
        }
      ],
      "name": "URI",
      "type": "event"
    },
    {
      "inputs": [],
      "name": "DEFAULT_ADMIN_ROLE",
      "outputs": [
        {
          "internalType": "bytes32",
          "name": "",
          "type": "bytes32"
        }
      ],
      "stateMutability": "view",
      "type": "function"
    },
    {
      "inputs": [],
      "name": "MINTER_ROLE",
      "outputs": [
        {
          "internalType": "bytes32",
          "name": "",
          "type": "bytes32"
        }
      ],
      "stateMutability": "view",
      "type": "function"
    },
    {
      "inputs": [],
      "name": "OWNER_ROLE",
      "outputs": [
        {
          "internalType": "bytes32",
          "name": "",
          "type": "bytes32"
        }
      ],
      "stateMutability": "view",
      "type": "function"
    },
    {
      "inputs": [],
      "name": "URI_SETTER_ROLE",
      "outputs": [
        {
          "internalType": "bytes32",
          "name": "",
          "type": "bytes32"
        }
      ],
      "stateMutability": "view",
      "type": "function"
    },
    {
      "inputs": [
        {
          "internalType": "address",
          "name": "account",
          "type": "address"
        },
        {
          "internalType": "uint256",
          "name": "id",
          "type": "uint256"
        }
      ],
      "name": "balanceOf",
      "outputs": [
        {
          "internalType": "uint256",
          "name": "",
          "type": "uint256"
        }
      ],
      "stateMutability": "view",
      "type": "function"
    },
    {
      "inputs": [
        {
          "internalType": "address[]",
          "name": "accounts",
          "type": "address[]"
        },
        {
          "internalType": "uint256[]",
          "name": "ids",
          "type": "uint256[]"
        }
      ],
      "name": "balanceOfBatch",
      "outputs": [
        {
          "internalType": "uint256[]",
          "name": "",
          "type": "uint256[]"
        }
      ],
      "stateMutability": "view",
      "type": "function"
    },
    {
      "inputs": [
        {
          "internalType": "address",
          "name": "from",
          "type": "address"
        },
        {
          "internalType": "address",
          "name": "to",
          "type": "address"
        },
        {
          "internalType": "uint256",
          "name": "id",
          "type": "uint256"
        },
        {
          "internalType": "uint256",
          "name": "amount",
          "type": "uint256"
        },
        {
          "internalType": "bytes",
          "name": "data",
          "type": "bytes"
        }
      ],
      "name": "contribute",
      "outputs": [],
      "stateMutability": "payable",
      "type": "function"
    },
    {
      "inputs": [
        {
          "internalType": "uint256",
          "name": "",
          "type": "uint256"
        }
      ],
      "name": "creatorPercentage",
      "outputs": [
        {
          "internalType": "uint256",
          "name": "",
          "type": "uint256"
        }
      ],
      "stateMutability": "view",
      "type": "function"
    },
    {
      "inputs": [
        {
          "internalType": "uint256",
          "name": "id",
          "type": "uint256"
        }
      ],
      "name": "exists",
      "outputs": [
        {
          "internalType": "bool",
          "name": "",
          "type": "bool"
        }
      ],
      "stateMutability": "view",
      "type": "function"
    },
    {
      "inputs": [
        {
          "internalType": "uint256",
          "name": "",
          "type": "uint256"
        }
      ],
      "name": "fundContributorPercentage",
      "outputs": [
        {
          "internalType": "uint256",
          "name": "",
          "type": "uint256"
        }
      ],
      "stateMutability": "view",
      "type": "function"
    },
    {
      "inputs": [
        {
          "internalType": "bytes32",
          "name": "role",
          "type": "bytes32"
        }
      ],
      "name": "getRoleAdmin",
      "outputs": [
        {
          "internalType": "bytes32",
          "name": "",
          "type": "bytes32"
        }
      ],
      "stateMutability": "view",
      "type": "function"
    },
    {
      "inputs": [
        {
          "internalType": "bytes32",
          "name": "role",
          "type": "bytes32"
        },
        {
          "internalType": "address",
          "name": "account",
          "type": "address"
        }
      ],
      "name": "grantRole",
      "outputs": [],
      "stateMutability": "nonpayable",
      "type": "function"
    },
    {
      "inputs": [
        {
          "internalType": "bytes32",
          "name": "role",
          "type": "bytes32"
        },
        {
          "internalType": "address",
          "name": "account",
          "type": "address"
        }
      ],
      "name": "hasRole",
      "outputs": [
        {
          "internalType": "bool",
          "name": "",
          "type": "bool"
        }
      ],
      "stateMutability": "view",
      "type": "function"
    },
    {
      "inputs": [],
      "name": "initialize",
      "outputs": [],
      "stateMutability": "nonpayable",
      "type": "function"
    },
    {
      "inputs": [
        {
          "internalType": "address",
          "name": "account",
          "type": "address"
        },
        {
          "internalType": "address",
          "name": "operator",
          "type": "address"
        }
      ],
      "name": "isApprovedForAll",
      "outputs": [
        {
          "internalType": "bool",
          "name": "",
          "type": "bool"
        }
      ],
      "stateMutability": "view",
      "type": "function"
    },
    {
      "inputs": [
        {
          "internalType": "address",
          "name": "to",
          "type": "address"
        },
        {
          "internalType": "uint256[]",
          "name": "ids",
          "type": "uint256[]"
        },
        {
          "internalType": "uint256[]",
          "name": "amounts",
          "type": "uint256[]"
        },
        {
          "internalType": "bytes",
          "name": "data",
          "type": "bytes"
        }
      ],
      "name": "mintBatch",
      "outputs": [],
      "stateMutability": "nonpayable",
      "type": "function"
    },
    {
      "inputs": [
        {
          "internalType": "address",
          "name": "creator",
          "type": "address"
        },
        {
          "internalType": "uint256",
          "name": "id",
          "type": "uint256"
        },
        {
          "internalType": "bytes",
          "name": "data",
          "type": "bytes"
        }
      ],
      "name": "mintEpiphany",
      "outputs": [],
      "stateMutability": "nonpayable",
      "type": "function"
    },
    {
      "inputs": [
        {
          "internalType": "bytes32",
          "name": "role",
          "type": "bytes32"
        },
        {
          "internalType": "address",
          "name": "account",
          "type": "address"
        }
      ],
      "name": "renounceRole",
      "outputs": [],
      "stateMutability": "nonpayable",
      "type": "function"
    },
    {
      "inputs": [
        {
          "internalType": "bytes32",
          "name": "role",
          "type": "bytes32"
        },
        {
          "internalType": "address",
          "name": "account",
          "type": "address"
        }
      ],
      "name": "revokeRole",
      "outputs": [],
      "stateMutability": "nonpayable",
      "type": "function"
    },
    {
      "inputs": [
        {
          "internalType": "address",
          "name": "from",
          "type": "address"
        },
        {
          "internalType": "address",
          "name": "to",
          "type": "address"
        },
        {
          "internalType": "uint256[]",
          "name": "ids",
          "type": "uint256[]"
        },
        {
          "internalType": "uint256[]",
          "name": "amounts",
          "type": "uint256[]"
        },
        {
          "internalType": "bytes",
          "name": "data",
          "type": "bytes"
        }
      ],
      "name": "safeBatchTransferFrom",
      "outputs": [],
      "stateMutability": "nonpayable",
      "type": "function"
    },
    {
      "inputs": [
        {
          "internalType": "address",
          "name": "from",
          "type": "address"
        },
        {
          "internalType": "address",
          "name": "to",
          "type": "address"
        },
        {
          "internalType": "uint256",
          "name": "id",
          "type": "uint256"
        },
        {
          "internalType": "uint256",
          "name": "amount",
          "type": "uint256"
        },
        {
          "internalType": "bytes",
          "name": "data",
          "type": "bytes"
        }
      ],
      "name": "safeTransferFrom",
      "outputs": [],
      "stateMutability": "nonpayable",
      "type": "function"
    },
    {
      "inputs": [
        {
          "internalType": "address",
          "name": "operator",
          "type": "address"
        },
        {
          "internalType": "bool",
          "name": "approved",
          "type": "bool"
        }
      ],
      "name": "setApprovalForAll",
      "outputs": [],
      "stateMutability": "nonpayable",
      "type": "function"
    },
    {
      "inputs": [
        {
          "internalType": "string",
          "name": "newuri",
          "type": "string"
        }
      ],
      "name": "setURI",
      "outputs": [],
      "stateMutability": "nonpayable",
      "type": "function"
    },
    {
      "inputs": [
        {
          "internalType": "bytes4",
          "name": "interfaceId",
          "type": "bytes4"
        }
      ],
      "name": "supportsInterface",
      "outputs": [
        {
          "internalType": "bool",
          "name": "",
          "type": "bool"
        }
      ],
      "stateMutability": "view",
      "type": "function"
    },
    {
      "inputs": [
        {
          "internalType": "uint256",
          "name": "id",
          "type": "uint256"
        }
      ],
      "name": "totalSupply",
      "outputs": [
        {
          "internalType": "uint256",
          "name": "",
          "type": "uint256"
        }
      ],
      "stateMutability": "view",
      "type": "function"
    },
    {
      "inputs": [
        {
          "internalType": "uint256",
          "name": "",
          "type": "uint256"
        }
      ],
      "name": "uri",
      "outputs": [
        {
          "internalType": "string",
          "name": "",
          "type": "string"
        }
      ],
      "stateMutability": "view",
      "type": "function"
    },
    {
      "inputs": [
        {
          "internalType": "uint256",
          "name": "",
          "type": "uint256"
        }
      ],
      "name": "workContributorPercentage",
      "outputs": [
        {
          "internalType": "uint256",
          "name": "",
          "type": "uint256"
        }
      ],
      "stateMutability": "view",
      "type": "function"
    }
  ],
  "bytecode": "0x60806040523480156200001157600080fd5b50620000226200002860201b60201c565b620001d3565b600060019054906101000a900460ff16156200007b576040517f08c379a0000000000000000000000000000000000000000000000000000000008152600401620000729062000176565b60405180910390fd5b60ff801660008054906101000a900460ff1660ff161015620000ed5760ff6000806101000a81548160ff021916908360ff1602179055507f7f26b83ff96e1f2b6a682f133852f6798a09c465da95921460cefb384740249860ff604051620000e49190620001b6565b60405180910390a15b565b600082825260208201905092915050565b7f496e697469616c697a61626c653a20636f6e747261637420697320696e69746960008201527f616c697a696e6700000000000000000000000000000000000000000000000000602082015250565b60006200015e602783620000ef565b91506200016b8262000100565b604082019050919050565b6000602082019050818103600083015262000191816200014f565b9050919050565b600060ff82169050919050565b620001b08162000198565b82525050565b6000602082019050620001cd6000830184620001a5565b92915050565b61457480620001e36000396000f3fe60806040526004361061019b5760003560e01c80634f558e79116100ec578063bd85b0391161008a578063dbcfd6a011610064578063dbcfd6a0146105fe578063e58378bb1461063b578063e985e9c514610666578063f242432a146106a35761019b565b8063bd85b0391461056d578063d5391393146105aa578063d547741f146105d55761019b565b806391d14854116100c657806391d148541461049f57806399e29049146104dc578063a217fddf14610519578063a22cb465146105445761019b565b80634f558e79146104205780637f3457101461045d5780638129fc1c146104885761019b565b80631a25d646116101595780632eb2c2d6116101335780632eb2c2d6146103685780632f2ff15d1461039157806336568abe146103ba5780634e1273f4146103e35761019b565b80631a25d646146102c55780631f7fdffa14610302578063248a9ca31461032b5761019b565b8062fdd58e146101a057806301ffc9a7146101dd57806302fe53051461021a5780630ddb70f2146102435780630e89341c1461026c57806312d10442146102a9575b600080fd5b3480156101ac57600080fd5b506101c760048036038101906101c291906129ac565b6106cc565b6040516101d491906129fb565b60405180910390f35b3480156101e957600080fd5b5061020460048036038101906101ff9190612a6e565b610795565b6040516102119190612ab6565b60405180910390f35b34801561022657600080fd5b50610241600480360381019061023c9190612c17565b6107a7565b005b34801561024f57600080fd5b5061026a60048036038101906102659190612d01565b6107de565b005b34801561027857600080fd5b50610293600480360381019061028e9190612d70565b6107f0565b6040516102a09190612e1c565b60405180910390f35b6102c360048036038101906102be9190612e3e565b610884565b005b3480156102d157600080fd5b506102ec60048036038101906102e79190612d70565b610898565b6040516102f991906129fb565b60405180910390f35b34801561030e57600080fd5b5061032960048036038101906103249190612f9d565b6108bc565b005b34801561033757600080fd5b50610352600480360381019061034d919061308e565b6108ce565b60405161035f91906130ca565b60405180910390f35b34801561037457600080fd5b5061038f600480360381019061038a91906130e5565b6108ee565b005b34801561039d57600080fd5b506103b860048036038101906103b391906131b4565b61098f565b005b3480156103c657600080fd5b506103e160048036038101906103dc91906131b4565b6109b0565b005b3480156103ef57600080fd5b5061040a600480360381019061040591906132b7565b610a33565b60405161041791906133ed565b60405180910390f35b34801561042c57600080fd5b5061044760048036038101906104429190612d70565b610b4c565b6040516104549190612ab6565b60405180910390f35b34801561046957600080fd5b50610472610b60565b60405161047f91906130ca565b60405180910390f35b34801561049457600080fd5b5061049d610b84565b005b3480156104ab57600080fd5b506104c660048036038101906104c191906131b4565b610d43565b6040516104d39190612ab6565b60405180910390f35b3480156104e857600080fd5b5061050360048036038101906104fe9190612d70565b610dae565b60405161051091906129fb565b60405180910390f35b34801561052557600080fd5b5061052e610dd2565b60405161053b91906130ca565b60405180910390f35b34801561055057600080fd5b5061056b6004803603810190610566919061343b565b610dd9565b005b34801561057957600080fd5b50610594600480360381019061058f9190612d70565b610def565b6040516105a191906129fb565b60405180910390f35b3480156105b657600080fd5b506105bf610e0c565b6040516105cc91906130ca565b60405180910390f35b3480156105e157600080fd5b506105fc60048036038101906105f791906131b4565b610e30565b005b34801561060a57600080fd5b5061062560048036038101906106209190612d70565b610e51565b60405161063291906129fb565b60405180910390f35b34801561064757600080fd5b50610650610e75565b60405161065d91906130ca565b60405180910390f35b34801561067257600080fd5b5061068d6004803603810190610688919061347b565b610e99565b60405161069a9190612ab6565b60405180910390f35b3480156106af57600080fd5b506106ca60048036038101906106c59190612e3e565b610f2d565b005b60008073ffffffffffffffffffffffffffffffffffffffff168373ffffffffffffffffffffffffffffffffffffffff160361073c576040517f08c379a00000000000000000000000000000000000000000000000000000000081526004016107339061352d565b60405180910390fd5b6065600083815260200190815260200160002060008473ffffffffffffffffffffffffffffffffffffffff1673ffffffffffffffffffffffffffffffffffffffff16815260200190815260200160002054905092915050565b60006107a082610fce565b9050919050565b7f7804d923f43a17d325d77e781528e0793b2edd9890ab45fc64efd7b4b427744c6107d181611048565b6107da8261105c565b5050565b6107eb838360008461106f565b505050565b6060606780546107ff9061357c565b80601f016020809104026020016040519081016040528092919081815260200182805461082b9061357c565b80156108785780601f1061084d57610100808354040283529160200191610878565b820191906000526020600020905b81548152906001019060200180831161085b57829003601f168201915b50505050509050919050565b6108918585858585610f2d565b5050505050565b60fc81815481106108a857600080fd5b906000526020600020016000915090505481565b6108c884848484611220565b50505050565b600060976000838152602001908152602001600020600101549050919050565b6108f661144d565b73ffffffffffffffffffffffffffffffffffffffff168573ffffffffffffffffffffffffffffffffffffffff16148061093c575061093b8561093661144d565b610e99565b5b61097b576040517f08c379a00000000000000000000000000000000000000000000000000000000081526004016109729061361f565b60405180910390fd5b6109888585858585611455565b5050505050565b610998826108ce565b6109a181611048565b6109ab8383611779565b505050565b6109b861144d565b73ffffffffffffffffffffffffffffffffffffffff168173ffffffffffffffffffffffffffffffffffffffff1614610a25576040517f08c379a0000000000000000000000000000000000000000000000000000000008152600401610a1c906136b1565b60405180910390fd5b610a2f828261185a565b5050565b60608151835114610a79576040517f08c379a0000000000000000000000000000000000000000000000000000000008152600401610a7090613743565b60405180910390fd5b6000835167ffffffffffffffff811115610a9657610a95612aec565b5b604051908082528060200260200182016040528015610ac45781602001602082028036833780820191505090505b50905060005b8451811015610b4157610b11858281518110610ae957610ae8613763565b5b6020026020010151858381518110610b0457610b03613763565b5b60200260200101516106cc565b828281518110610b2457610b23613763565b5b60200260200101818152505080610b3a906137c1565b9050610aca565b508091505092915050565b600080610b5883610def565b119050919050565b7f7804d923f43a17d325d77e781528e0793b2edd9890ab45fc64efd7b4b427744c81565b60008060019054906101000a900460ff16159050808015610bb55750600160008054906101000a900460ff1660ff16105b80610be25750610bc43061193c565b158015610be15750600160008054906101000a900460ff1660ff16145b5b610c21576040517f08c379a0000000000000000000000000000000000000000000000000000000008152600401610c189061387b565b60405180910390fd5b60016000806101000a81548160ff021916908360ff1602179055508015610c5e576001600060016101000a81548160ff0219169083151502179055505b610c766040518060200160405280600081525061195f565b610c7e6119ba565b610c86611a0b565b610c936000801b33611779565b610cbd7f7804d923f43a17d325d77e781528e0793b2edd9890ab45fc64efd7b4b427744c33611779565b610ce77f9f2df0fed2c77648de5860a4cc508cd0818c85b8b8a1ab4ceeef8d981c8956a633611779565b8015610d405760008060016101000a81548160ff0219169083151502179055507f7f26b83ff96e1f2b6a682f133852f6798a09c465da95921460cefb38474024986001604051610d3791906138ed565b60405180910390a15b50565b60006097600084815260200190815260200160002060000160008373ffffffffffffffffffffffffffffffffffffffff1673ffffffffffffffffffffffffffffffffffffffff16815260200190815260200160002060009054906101000a900460ff16905092915050565b60fd8181548110610dbe57600080fd5b906000526020600020016000915090505481565b6000801b81565b610deb610de461144d565b8383611a5c565b5050565b600060c96000838152602001908152602001600020549050919050565b7f9f2df0fed2c77648de5860a4cc508cd0818c85b8b8a1ab4ceeef8d981c8956a681565b610e39826108ce565b610e4281611048565b610e4c838361185a565b505050565b60fb8181548110610e6157600080fd5b906000526020600020016000915090505481565b7fb19546dff01e856fb3f010c267a7b1c60363cf8a4664e21cc89c26224620214e81565b6000606660008473ffffffffffffffffffffffffffffffffffffffff1673ffffffffffffffffffffffffffffffffffffffff16815260200190815260200160002060008373ffffffffffffffffffffffffffffffffffffffff1673ffffffffffffffffffffffffffffffffffffffff16815260200190815260200160002060009054906101000a900460ff16905092915050565b610f3561144d565b73ffffffffffffffffffffffffffffffffffffffff168573ffffffffffffffffffffffffffffffffffffffff161480610f7b5750610f7a85610f7561144d565b610e99565b5b610fba576040517f08c379a0000000000000000000000000000000000000000000000000000000008152600401610fb19061361f565b60405180910390fd5b610fc78585858585611bc8565b5050505050565b60007f7965db0b000000000000000000000000000000000000000000000000000000007bffffffffffffffffffffffffffffffffffffffffffffffffffffffff1916827bffffffffffffffffffffffffffffffffffffffffffffffffffffffff19161480611041575061104082611e66565b5b9050919050565b6110598161105461144d565b611f48565b50565b806067908161106b9190613aaa565b5050565b600073ffffffffffffffffffffffffffffffffffffffff168473ffffffffffffffffffffffffffffffffffffffff16036110de576040517f08c379a00000000000000000000000000000000000000000000000000000000081526004016110d590613bee565b60405180910390fd5b60006110e861144d565b905060006110f585611fe5565b9050600061110285611fe5565b90506111138360008985858961205f565b846065600088815260200190815260200160002060008973ffffffffffffffffffffffffffffffffffffffff1673ffffffffffffffffffffffffffffffffffffffff16815260200190815260200160002060008282546111739190613c0e565b925050819055508673ffffffffffffffffffffffffffffffffffffffff16600073ffffffffffffffffffffffffffffffffffffffff168473ffffffffffffffffffffffffffffffffffffffff167fc3d58168c5ae7397731d063d5bbf3d657854427343f4c083240f7aacaa2d0f6289896040516111f1929190613c42565b60405180910390a461120883600089858589612075565b6112178360008989898961207d565b50505050505050565b600073ffffffffffffffffffffffffffffffffffffffff168473ffffffffffffffffffffffffffffffffffffffff160361128f576040517f08c379a000000000000000000000000000000000000000000000000000000000815260040161128690613bee565b60405180910390fd5b81518351146112d3576040517f08c379a00000000000000000000000000000000000000000000000000000000081526004016112ca90613cdd565b60405180910390fd5b60006112dd61144d565b90506112ee8160008787878761205f565b60005b84518110156113a85783818151811061130d5761130c613763565b5b60200260200101516065600087848151811061132c5761132b613763565b5b6020026020010151815260200190815260200160002060008873ffffffffffffffffffffffffffffffffffffffff1673ffffffffffffffffffffffffffffffffffffffff168152602001908152602001600020600082825461138e9190613c0e565b9250508190555080806113a0906137c1565b9150506112f1565b508473ffffffffffffffffffffffffffffffffffffffff16600073ffffffffffffffffffffffffffffffffffffffff168273ffffffffffffffffffffffffffffffffffffffff167f4a39dc06d4c0dbc64b70af90fd698a233a518aa5d07e595d983b8c0526c8f7fb8787604051611420929190613cfd565b60405180910390a461143781600087878787612075565b61144681600087878787612254565b5050505050565b600033905090565b8151835114611499576040517f08c379a000000000000000000000000000000000000000000000000000000000815260040161149090613cdd565b60405180910390fd5b600073ffffffffffffffffffffffffffffffffffffffff168473ffffffffffffffffffffffffffffffffffffffff1603611508576040517f08c379a00000000000000000000000000000000000000000000000000000000081526004016114ff90613da6565b60405180910390fd5b600061151261144d565b905061152281878787878761205f565b60005b84518110156116d657600085828151811061154357611542613763565b5b60200260200101519050600085838151811061156257611561613763565b5b6020026020010151905060006065600084815260200190815260200160002060008b73ffffffffffffffffffffffffffffffffffffffff1673ffffffffffffffffffffffffffffffffffffffff16815260200190815260200160002054905081811015611604576040517f08c379a00000000000000000000000000000000000000000000000000000000081526004016115fb90613e38565b60405180910390fd5b8181036065600085815260200190815260200160002060008c73ffffffffffffffffffffffffffffffffffffffff1673ffffffffffffffffffffffffffffffffffffffff16815260200190815260200160002081905550816065600085815260200190815260200160002060008b73ffffffffffffffffffffffffffffffffffffffff1673ffffffffffffffffffffffffffffffffffffffff16815260200190815260200160002060008282546116bb9190613c0e565b92505081905550505050806116cf906137c1565b9050611525565b508473ffffffffffffffffffffffffffffffffffffffff168673ffffffffffffffffffffffffffffffffffffffff168273ffffffffffffffffffffffffffffffffffffffff167f4a39dc06d4c0dbc64b70af90fd698a233a518aa5d07e595d983b8c0526c8f7fb878760405161174d929190613cfd565b60405180910390a4611763818787878787612075565b611771818787878787612254565b505050505050565b6117838282610d43565b6118565760016097600084815260200190815260200160002060000160008373ffffffffffffffffffffffffffffffffffffffff1673ffffffffffffffffffffffffffffffffffffffff16815260200190815260200160002060006101000a81548160ff0219169083151502179055506117fb61144d565b73ffffffffffffffffffffffffffffffffffffffff168173ffffffffffffffffffffffffffffffffffffffff16837f2f8788117e7eff1d82e926ec794901d17c78024a50270940304540a733656f0d60405160405180910390a45b5050565b6118648282610d43565b156119385760006097600084815260200190815260200160002060000160008373ffffffffffffffffffffffffffffffffffffffff1673ffffffffffffffffffffffffffffffffffffffff16815260200190815260200160002060006101000a81548160ff0219169083151502179055506118dd61144d565b73ffffffffffffffffffffffffffffffffffffffff168173ffffffffffffffffffffffffffffffffffffffff16837ff6391f5c32d9c69d2a47ea670b442974b53935d1edc7fd64eb21e047a839171b60405160405180910390a45b5050565b6000808273ffffffffffffffffffffffffffffffffffffffff163b119050919050565b600060019054906101000a900460ff166119ae576040517f08c379a00000000000000000000000000000000000000000000000000000000081526004016119a590613eca565b60405180910390fd5b6119b78161242b565b50565b600060019054906101000a900460ff16611a09576040517f08c379a0000000000000000000000000000000000000000000000000000000008152600401611a0090613eca565b60405180910390fd5b565b600060019054906101000a900460ff16611a5a576040517f08c379a0000000000000000000000000000000000000000000000000000000008152600401611a5190613eca565b60405180910390fd5b565b8173ffffffffffffffffffffffffffffffffffffffff168373ffffffffffffffffffffffffffffffffffffffff1603611aca576040517f08c379a0000000000000000000000000000000000000000000000000000000008152600401611ac190613f5c565b60405180910390fd5b80606660008573ffffffffffffffffffffffffffffffffffffffff1673ffffffffffffffffffffffffffffffffffffffff16815260200190815260200160002060008473ffffffffffffffffffffffffffffffffffffffff1673ffffffffffffffffffffffffffffffffffffffff16815260200190815260200160002060006101000a81548160ff0219169083151502179055508173ffffffffffffffffffffffffffffffffffffffff168373ffffffffffffffffffffffffffffffffffffffff167f17307eab39ab6107e8899845ad3d59bd9653f200f220920489ca2b5937696c3183604051611bbb9190612ab6565b60405180910390a3505050565b600073ffffffffffffffffffffffffffffffffffffffff168473ffffffffffffffffffffffffffffffffffffffff1603611c37576040517f08c379a0000000000000000000000000000000000000000000000000000000008152600401611c2e90613da6565b60405180910390fd5b6000611c4161144d565b90506000611c4e85611fe5565b90506000611c5b85611fe5565b9050611c6b83898985858961205f565b60006065600088815260200190815260200160002060008a73ffffffffffffffffffffffffffffffffffffffff1673ffffffffffffffffffffffffffffffffffffffff16815260200190815260200160002054905085811015611d03576040517f08c379a0000000000000000000000000000000000000000000000000000000008152600401611cfa90613e38565b60405180910390fd5b8581036065600089815260200190815260200160002060008b73ffffffffffffffffffffffffffffffffffffffff1673ffffffffffffffffffffffffffffffffffffffff16815260200190815260200160002081905550856065600089815260200190815260200160002060008a73ffffffffffffffffffffffffffffffffffffffff1673ffffffffffffffffffffffffffffffffffffffff1681526020019081526020016000206000828254611dba9190613c0e565b925050819055508773ffffffffffffffffffffffffffffffffffffffff168973ffffffffffffffffffffffffffffffffffffffff168573ffffffffffffffffffffffffffffffffffffffff167fc3d58168c5ae7397731d063d5bbf3d657854427343f4c083240f7aacaa2d0f628a8a604051611e37929190613c42565b60405180910390a4611e4d848a8a86868a612075565b611e5b848a8a8a8a8a61207d565b505050505050505050565b60007fd9b67a26000000000000000000000000000000000000000000000000000000007bffffffffffffffffffffffffffffffffffffffffffffffffffffffff1916827bffffffffffffffffffffffffffffffffffffffffffffffffffffffff19161480611f3157507f0e89341c000000000000000000000000000000000000000000000000000000007bffffffffffffffffffffffffffffffffffffffffffffffffffffffff1916827bffffffffffffffffffffffffffffffffffffffffffffffffffffffff1916145b80611f415750611f4082612486565b5b9050919050565b611f528282610d43565b611fe157611f778173ffffffffffffffffffffffffffffffffffffffff1660146124f0565b611f858360001c60206124f0565b604051602001611f96929190614050565b6040516020818303038152906040526040517f08c379a0000000000000000000000000000000000000000000000000000000008152600401611fd89190612e1c565b60405180910390fd5b5050565b60606000600167ffffffffffffffff81111561200457612003612aec565b5b6040519080825280602002602001820160405280156120325781602001602082028036833780820191505090505b509050828160008151811061204a57612049613763565b5b60200260200101818152505080915050919050565b61206d86868686868661272c565b505050505050565b505050505050565b61209c8473ffffffffffffffffffffffffffffffffffffffff1661193c565b1561224c578373ffffffffffffffffffffffffffffffffffffffff1663f23a6e6187878686866040518663ffffffff1660e01b81526004016120e29594939291906140ee565b6020604051808303816000875af192505050801561211e57506040513d601f19601f8201168201806040525081019061211b919061415d565b60015b6121c35761212a614197565b806308c379a003612186575061213e6141b9565b806121495750612188565b806040517f08c379a000000000000000000000000000000000000000000000000000000000815260040161217d9190612e1c565b60405180910390fd5b505b6040517f08c379a00000000000000000000000000000000000000000000000000000000081526004016121ba906142bb565b60405180910390fd5b63f23a6e6160e01b7bffffffffffffffffffffffffffffffffffffffffffffffffffffffff1916817bffffffffffffffffffffffffffffffffffffffffffffffffffffffff19161461224a576040517f08c379a00000000000000000000000000000000000000000000000000000000081526004016122419061434d565b60405180910390fd5b505b505050505050565b6122738473ffffffffffffffffffffffffffffffffffffffff1661193c565b15612423578373ffffffffffffffffffffffffffffffffffffffff1663bc197c8187878686866040518663ffffffff1660e01b81526004016122b995949392919061436d565b6020604051808303816000875af19250505080156122f557506040513d601f19601f820116820180604052508101906122f2919061415d565b60015b61239a57612301614197565b806308c379a00361235d57506123156141b9565b80612320575061235f565b806040517f08c379a00000000000000000000000000000000000000000000000000000000081526004016123549190612e1c565b60405180910390fd5b505b6040517f08c379a0000000000000000000000000000000000000000000000000000000008152600401612391906142bb565b60405180910390fd5b63bc197c8160e01b7bffffffffffffffffffffffffffffffffffffffffffffffffffffffff1916817bffffffffffffffffffffffffffffffffffffffffffffffffffffffff191614612421576040517f08c379a00000000000000000000000000000000000000000000000000000000081526004016124189061434d565b60405180910390fd5b505b505050505050565b600060019054906101000a900460ff1661247a576040517f08c379a000000000000000000000000000000000000000000000000000000000815260040161247190613eca565b60405180910390fd5b6124838161105c565b50565b60007f01ffc9a7000000000000000000000000000000000000000000000000000000007bffffffffffffffffffffffffffffffffffffffffffffffffffffffff1916827bffffffffffffffffffffffffffffffffffffffffffffffffffffffff1916149050919050565b60606000600283600261250391906143d5565b61250d9190613c0e565b67ffffffffffffffff81111561252657612525612aec565b5b6040519080825280601f01601f1916602001820160405280156125585781602001600182028036833780820191505090505b5090507f3000000000000000000000000000000000000000000000000000000000000000816000815181106125905761258f613763565b5b60200101907effffffffffffffffffffffffffffffffffffffffffffffffffffffffffffff1916908160001a9053507f7800000000000000000000000000000000000000000000000000000000000000816001815181106125f4576125f3613763565b5b60200101907effffffffffffffffffffffffffffffffffffffffffffffffffffffffffffff1916908160001a9053506000600184600261263491906143d5565b61263e9190613c0e565b90505b60018111156126de577f3031323334353637383961626364656600000000000000000000000000000000600f8616601081106126805761267f613763565b5b1a60f81b82828151811061269757612696613763565b5b60200101907effffffffffffffffffffffffffffffffffffffffffffffffffffffffffffff1916908160001a905350600485901c9450806126d790614417565b9050612641565b5060008414612722576040517f08c379a00000000000000000000000000000000000000000000000000000000081526004016127199061448c565b60405180910390fd5b8091505092915050565b61273a8686868686866128fc565b600073ffffffffffffffffffffffffffffffffffffffff168573ffffffffffffffffffffffffffffffffffffffff16036127eb5760005b83518110156127e95782818151811061278d5761278c613763565b5b602002602001015160c960008684815181106127ac576127ab613763565b5b6020026020010151815260200190815260200160002060008282546127d19190613c0e565b92505081905550806127e2906137c1565b9050612771565b505b600073ffffffffffffffffffffffffffffffffffffffff168473ffffffffffffffffffffffffffffffffffffffff16036128f45760005b83518110156128f25760008482815181106128405761283f613763565b5b60200260200101519050600084838151811061285f5761285e613763565b5b60200260200101519050600060c96000848152602001908152602001600020549050818110156128c4576040517f08c379a00000000000000000000000000000000000000000000000000000000081526004016128bb9061451e565b60405180910390fd5b81810360c9600085815260200190815260200160002081905550505050806128eb906137c1565b9050612822565b505b505050505050565b505050505050565b6000604051905090565b600080fd5b600080fd5b600073ffffffffffffffffffffffffffffffffffffffff82169050919050565b600061294382612918565b9050919050565b61295381612938565b811461295e57600080fd5b50565b6000813590506129708161294a565b92915050565b6000819050919050565b61298981612976565b811461299457600080fd5b50565b6000813590506129a681612980565b92915050565b600080604083850312156129c3576129c261290e565b5b60006129d185828601612961565b92505060206129e285828601612997565b9150509250929050565b6129f581612976565b82525050565b6000602082019050612a1060008301846129ec565b92915050565b60007fffffffff0000000000000000000000000000000000000000000000000000000082169050919050565b612a4b81612a16565b8114612a5657600080fd5b50565b600081359050612a6881612a42565b92915050565b600060208284031215612a8457612a8361290e565b5b6000612a9284828501612a59565b91505092915050565b60008115159050919050565b612ab081612a9b565b82525050565b6000602082019050612acb6000830184612aa7565b92915050565b600080fd5b600080fd5b6000601f19601f8301169050919050565b7f4e487b7100000000000000000000000000000000000000000000000000000000600052604160045260246000fd5b612b2482612adb565b810181811067ffffffffffffffff82111715612b4357612b42612aec565b5b80604052505050565b6000612b56612904565b9050612b628282612b1b565b919050565b600067ffffffffffffffff821115612b8257612b81612aec565b5b612b8b82612adb565b9050602081019050919050565b82818337600083830152505050565b6000612bba612bb584612b67565b612b4c565b905082815260208101848484011115612bd657612bd5612ad6565b5b612be1848285612b98565b509392505050565b600082601f830112612bfe57612bfd612ad1565b5b8135612c0e848260208601612ba7565b91505092915050565b600060208284031215612c2d57612c2c61290e565b5b600082013567ffffffffffffffff811115612c4b57612c4a612913565b5b612c5784828501612be9565b91505092915050565b600067ffffffffffffffff821115612c7b57612c7a612aec565b5b612c8482612adb565b9050602081019050919050565b6000612ca4612c9f84612c60565b612b4c565b905082815260208101848484011115612cc057612cbf612ad6565b5b612ccb848285612b98565b509392505050565b600082601f830112612ce857612ce7612ad1565b5b8135612cf8848260208601612c91565b91505092915050565b600080600060608486031215612d1a57612d1961290e565b5b6000612d2886828701612961565b9350506020612d3986828701612997565b925050604084013567ffffffffffffffff811115612d5a57612d59612913565b5b612d6686828701612cd3565b9150509250925092565b600060208284031215612d8657612d8561290e565b5b6000612d9484828501612997565b91505092915050565b600081519050919050565b600082825260208201905092915050565b60005b83811015612dd7578082015181840152602081019050612dbc565b60008484015250505050565b6000612dee82612d9d565b612df88185612da8565b9350612e08818560208601612db9565b612e1181612adb565b840191505092915050565b60006020820190508181036000830152612e368184612de3565b905092915050565b600080600080600060a08688031215612e5a57612e5961290e565b5b6000612e6888828901612961565b9550506020612e7988828901612961565b9450506040612e8a88828901612997565b9350506060612e9b88828901612997565b925050608086013567ffffffffffffffff811115612ebc57612ebb612913565b5b612ec888828901612cd3565b9150509295509295909350565b600067ffffffffffffffff821115612ef057612eef612aec565b5b602082029050602081019050919050565b600080fd5b6000612f19612f1484612ed5565b612b4c565b90508083825260208201905060208402830185811115612f3c57612f3b612f01565b5b835b81811015612f655780612f518882612997565b845260208401935050602081019050612f3e565b5050509392505050565b600082601f830112612f8457612f83612ad1565b5b8135612f94848260208601612f06565b91505092915050565b60008060008060808587031215612fb757612fb661290e565b5b6000612fc587828801612961565b945050602085013567ffffffffffffffff811115612fe657612fe5612913565b5b612ff287828801612f6f565b935050604085013567ffffffffffffffff81111561301357613012612913565b5b61301f87828801612f6f565b925050606085013567ffffffffffffffff8111156130405761303f612913565b5b61304c87828801612cd3565b91505092959194509250565b6000819050919050565b61306b81613058565b811461307657600080fd5b50565b60008135905061308881613062565b92915050565b6000602082840312156130a4576130a361290e565b5b60006130b284828501613079565b91505092915050565b6130c481613058565b82525050565b60006020820190506130df60008301846130bb565b92915050565b600080600080600060a086880312156131015761310061290e565b5b600061310f88828901612961565b955050602061312088828901612961565b945050604086013567ffffffffffffffff81111561314157613140612913565b5b61314d88828901612f6f565b935050606086013567ffffffffffffffff81111561316e5761316d612913565b5b61317a88828901612f6f565b925050608086013567ffffffffffffffff81111561319b5761319a612913565b5b6131a788828901612cd3565b9150509295509295909350565b600080604083850312156131cb576131ca61290e565b5b60006131d985828601613079565b92505060206131ea85828601612961565b9150509250929050565b600067ffffffffffffffff82111561320f5761320e612aec565b5b602082029050602081019050919050565b600061323361322e846131f4565b612b4c565b9050808382526020820190506020840283018581111561325657613255612f01565b5b835b8181101561327f578061326b8882612961565b845260208401935050602081019050613258565b5050509392505050565b600082601f83011261329e5761329d612ad1565b5b81356132ae848260208601613220565b91505092915050565b600080604083850312156132ce576132cd61290e565b5b600083013567ffffffffffffffff8111156132ec576132eb612913565b5b6132f885828601613289565b925050602083013567ffffffffffffffff81111561331957613318612913565b5b61332585828601612f6f565b9150509250929050565b600081519050919050565b600082825260208201905092915050565b6000819050602082019050919050565b61336481612976565b82525050565b6000613376838361335b565b60208301905092915050565b6000602082019050919050565b600061339a8261332f565b6133a4818561333a565b93506133af8361334b565b8060005b838110156133e05781516133c7888261336a565b97506133d283613382565b9250506001810190506133b3565b5085935050505092915050565b60006020820190508181036000830152613407818461338f565b905092915050565b61341881612a9b565b811461342357600080fd5b50565b6000813590506134358161340f565b92915050565b600080604083850312156134525761345161290e565b5b600061346085828601612961565b925050602061347185828601613426565b9150509250929050565b600080604083850312156134925761349161290e565b5b60006134a085828601612961565b92505060206134b185828601612961565b9150509250929050565b7f455243313135353a2061646472657373207a65726f206973206e6f742061207660008201527f616c6964206f776e657200000000000000000000000000000000000000000000602082015250565b6000613517602a83612da8565b9150613522826134bb565b604082019050919050565b600060208201905081810360008301526135468161350a565b9050919050565b7f4e487b7100000000000000000000000000000000000000000000000000000000600052602260045260246000fd5b6000600282049050600182168061359457607f821691505b6020821081036135a7576135a661354d565b5b50919050565b7f455243313135353a2063616c6c6572206973206e6f7420746f6b656e206f776e60008201527f6572206e6f7220617070726f7665640000000000000000000000000000000000602082015250565b6000613609602f83612da8565b9150613614826135ad565b604082019050919050565b60006020820190508181036000830152613638816135fc565b9050919050565b7f416363657373436f6e74726f6c3a2063616e206f6e6c792072656e6f756e636560008201527f20726f6c657320666f722073656c660000000000000000000000000000000000602082015250565b600061369b602f83612da8565b91506136a68261363f565b604082019050919050565b600060208201905081810360008301526136ca8161368e565b9050919050565b7f455243313135353a206163636f756e747320616e6420696473206c656e67746860008201527f206d69736d617463680000000000000000000000000000000000000000000000602082015250565b600061372d602983612da8565b9150613738826136d1565b604082019050919050565b6000602082019050818103600083015261375c81613720565b9050919050565b7f4e487b7100000000000000000000000000000000000000000000000000000000600052603260045260246000fd5b7f4e487b7100000000000000000000000000000000000000000000000000000000600052601160045260246000fd5b60006137cc82612976565b91507fffffffffffffffffffffffffffffffffffffffffffffffffffffffffffffffff82036137fe576137fd613792565b5b600182019050919050565b7f496e697469616c697a61626c653a20636f6e747261637420697320616c72656160008201527f647920696e697469616c697a6564000000000000000000000000000000000000602082015250565b6000613865602e83612da8565b915061387082613809565b604082019050919050565b6000602082019050818103600083015261389481613858565b9050919050565b6000819050919050565b600060ff82169050919050565b6000819050919050565b60006138d76138d26138cd8461389b565b6138b2565b6138a5565b9050919050565b6138e7816138bc565b82525050565b600060208201905061390260008301846138de565b92915050565b60008190508160005260206000209050919050565b60006020601f8301049050919050565b600082821b905092915050565b60006008830261396a7fffffffffffffffffffffffffffffffffffffffffffffffffffffffffffffffff8261392d565b613974868361392d565b95508019841693508086168417925050509392505050565b60006139a76139a261399d84612976565b6138b2565b612976565b9050919050565b6000819050919050565b6139c18361398c565b6139d56139cd826139ae565b84845461393a565b825550505050565b600090565b6139ea6139dd565b6139f58184846139b8565b505050565b5b81811015613a1957613a0e6000826139e2565b6001810190506139fb565b5050565b601f821115613a5e57613a2f81613908565b613a388461391d565b81016020851015613a47578190505b613a5b613a538561391d565b8301826139fa565b50505b505050565b600082821c905092915050565b6000613a8160001984600802613a63565b1980831691505092915050565b6000613a9a8383613a70565b9150826002028217905092915050565b613ab382612d9d565b67ffffffffffffffff811115613acc57613acb612aec565b5b613ad6825461357c565b613ae1828285613a1d565b600060209050601f831160018114613b145760008415613b02578287015190505b613b0c8582613a8e565b865550613b74565b601f198416613b2286613908565b60005b82811015613b4a57848901518255600182019150602085019450602081019050613b25565b86831015613b675784890151613b63601f891682613a70565b8355505b6001600288020188555050505b505050505050565b7f455243313135353a206d696e7420746f20746865207a65726f2061646472657360008201527f7300000000000000000000000000000000000000000000000000000000000000602082015250565b6000613bd8602183612da8565b9150613be382613b7c565b604082019050919050565b60006020820190508181036000830152613c0781613bcb565b9050919050565b6000613c1982612976565b9150613c2483612976565b9250828201905080821115613c3c57613c3b613792565b5b92915050565b6000604082019050613c5760008301856129ec565b613c6460208301846129ec565b9392505050565b7f455243313135353a2069647320616e6420616d6f756e7473206c656e6774682060008201527f6d69736d61746368000000000000000000000000000000000000000000000000602082015250565b6000613cc7602883612da8565b9150613cd282613c6b565b604082019050919050565b60006020820190508181036000830152613cf681613cba565b9050919050565b60006040820190508181036000830152613d17818561338f565b90508181036020830152613d2b818461338f565b90509392505050565b7f455243313135353a207472616e7366657220746f20746865207a65726f20616460008201527f6472657373000000000000000000000000000000000000000000000000000000602082015250565b6000613d90602583612da8565b9150613d9b82613d34565b604082019050919050565b60006020820190508181036000830152613dbf81613d83565b9050919050565b7f455243313135353a20696e73756666696369656e742062616c616e636520666f60008201527f72207472616e7366657200000000000000000000000000000000000000000000602082015250565b6000613e22602a83612da8565b9150613e2d82613dc6565b604082019050919050565b60006020820190508181036000830152613e5181613e15565b9050919050565b7f496e697469616c697a61626c653a20636f6e7472616374206973206e6f74206960008201527f6e697469616c697a696e67000000000000000000000000000000000000000000602082015250565b6000613eb4602b83612da8565b9150613ebf82613e58565b604082019050919050565b60006020820190508181036000830152613ee381613ea7565b9050919050565b7f455243313135353a2073657474696e6720617070726f76616c2073746174757360008201527f20666f722073656c660000000000000000000000000000000000000000000000602082015250565b6000613f46602983612da8565b9150613f5182613eea565b604082019050919050565b60006020820190508181036000830152613f7581613f39565b9050919050565b600081905092915050565b7f416363657373436f6e74726f6c3a206163636f756e7420000000000000000000600082015250565b6000613fbd601783613f7c565b9150613fc882613f87565b601782019050919050565b6000613fde82612d9d565b613fe88185613f7c565b9350613ff8818560208601612db9565b80840191505092915050565b7f206973206d697373696e6720726f6c6520000000000000000000000000000000600082015250565b600061403a601183613f7c565b915061404582614004565b601182019050919050565b600061405b82613fb0565b91506140678285613fd3565b91506140728261402d565b915061407e8284613fd3565b91508190509392505050565b61409381612938565b82525050565b600081519050919050565b600082825260208201905092915050565b60006140c082614099565b6140ca81856140a4565b93506140da818560208601612db9565b6140e381612adb565b840191505092915050565b600060a082019050614103600083018861408a565b614110602083018761408a565b61411d60408301866129ec565b61412a60608301856129ec565b818103608083015261413c81846140b5565b90509695505050505050565b60008151905061415781612a42565b92915050565b6000602082840312156141735761417261290e565b5b600061418184828501614148565b91505092915050565b60008160e01c9050919050565b600060033d11156141b65760046000803e6141b360005161418a565b90505b90565b600060443d10614246576141cb612904565b60043d036004823e80513d602482011167ffffffffffffffff821117156141f3575050614246565b808201805167ffffffffffffffff8111156142115750505050614246565b80602083010160043d03850181111561422e575050505050614246565b61423d82602001850186612b1b565b82955050505050505b90565b7f455243313135353a207472616e7366657220746f206e6f6e204552433131353560008201527f526563656976657220696d706c656d656e746572000000000000000000000000602082015250565b60006142a5603483612da8565b91506142b082614249565b604082019050919050565b600060208201905081810360008301526142d481614298565b9050919050565b7f455243313135353a204552433131353552656365697665722072656a6563746560008201527f6420746f6b656e73000000000000000000000000000000000000000000000000602082015250565b6000614337602883612da8565b9150614342826142db565b604082019050919050565b600060208201905081810360008301526143668161432a565b9050919050565b600060a082019050614382600083018861408a565b61438f602083018761408a565b81810360408301526143a1818661338f565b905081810360608301526143b5818561338f565b905081810360808301526143c981846140b5565b90509695505050505050565b60006143e082612976565b91506143eb83612976565b92508282026143f981612976565b915082820484148315176144105761440f613792565b5b5092915050565b600061442282612976565b91506000820361443557614434613792565b5b600182039050919050565b7f537472696e67733a20686578206c656e67746820696e73756666696369656e74600082015250565b6000614476602083612da8565b915061448182614440565b602082019050919050565b600060208201905081810360008301526144a581614469565b9050919050565b7f455243313135353a206275726e20616d6f756e74206578636565647320746f7460008201527f616c537570706c79000000000000000000000000000000000000000000000000602082015250565b6000614508602883612da8565b9150614513826144ac565b604082019050919050565b60006020820190508181036000830152614537816144fb565b905091905056fea264697066735822122007b2fc9439c05a5918ce289689e2326c79bf0631d398ade96e4dddf66b1971b464736f6c63430008110033",
  "linkReferences": {},
  "deployedLinkReferences": {}
}